{
  "_format": "hh-sol-artifact-1",
  "contractName": "GPTMembership",
  "sourceName": "contracts/GPTMembership.sol",
  "abi": [
    {
      "inputs": [
        {
          "internalType": "string",
          "name": "_name",
          "type": "string"
        },
        {
          "internalType": "string",
          "name": "_symbol",
          "type": "string"
        }
      ],
      "stateMutability": "nonpayable",
      "type": "constructor"
    },
    {
      "anonymous": false,
      "inputs": [
        {
          "indexed": true,
          "internalType": "address",
          "name": "owner",
          "type": "address"
        },
        {
          "indexed": true,
          "internalType": "address",
          "name": "approved",
          "type": "address"
        },
        {
          "indexed": true,
          "internalType": "uint256",
          "name": "tokenId",
          "type": "uint256"
        }
      ],
      "name": "Approval",
      "type": "event"
    },
    {
      "anonymous": false,
      "inputs": [
        {
          "indexed": true,
          "internalType": "address",
          "name": "owner",
          "type": "address"
        },
        {
          "indexed": true,
          "internalType": "address",
          "name": "operator",
          "type": "address"
        },
        {
          "indexed": false,
          "internalType": "bool",
          "name": "approved",
          "type": "bool"
        }
      ],
      "name": "ApprovalForAll",
      "type": "event"
    },
    {
      "anonymous": false,
      "inputs": [
        {
          "indexed": true,
          "internalType": "address",
          "name": "from",
          "type": "address"
        },
        {
          "indexed": true,
          "internalType": "address",
          "name": "to",
          "type": "address"
        },
        {
          "indexed": true,
          "internalType": "uint256",
          "name": "tokenId",
          "type": "uint256"
        }
      ],
      "name": "Transfer",
      "type": "event"
    },
    {
      "inputs": [],
      "name": "MY_CONTRACT",
      "outputs": [
        {
          "internalType": "string",
          "name": "",
          "type": "string"
        }
      ],
      "stateMutability": "view",
      "type": "function"
    },
    {
      "inputs": [
        {
          "internalType": "address",
          "name": "to",
          "type": "address"
        },
        {
          "internalType": "uint256",
          "name": "tokenId",
          "type": "uint256"
        }
      ],
      "name": "approve",
      "outputs": [],
      "stateMutability": "nonpayable",
      "type": "function"
    },
    {
      "inputs": [
        {
          "internalType": "address",
          "name": "owner",
          "type": "address"
        }
      ],
      "name": "balanceOf",
      "outputs": [
        {
          "internalType": "uint256",
          "name": "",
          "type": "uint256"
        }
      ],
      "stateMutability": "view",
      "type": "function"
    },
    {
      "inputs": [
        {
          "internalType": "uint256",
          "name": "tokenId",
          "type": "uint256"
        }
      ],
      "name": "getApproved",
      "outputs": [
        {
          "internalType": "address",
          "name": "",
          "type": "address"
        }
      ],
      "stateMutability": "view",
      "type": "function"
    },
    {
      "inputs": [
        {
          "internalType": "uint256",
          "name": "_membershipId",
          "type": "uint256"
        }
      ],
      "name": "getMembership",
      "outputs": [
        {
          "components": [
            {
              "internalType": "uint256",
              "name": "id",
              "type": "uint256"
            },
            {
              "internalType": "string",
              "name": "name",
              "type": "string"
            },
            {
              "internalType": "uint256",
              "name": "cost",
              "type": "uint256"
            },
            {
              "internalType": "string",
              "name": "date",
              "type": "string"
            }
          ],
          "internalType": "struct GPTMembership.Membership",
          "name": "",
          "type": "tuple"
        }
      ],
      "stateMutability": "view",
      "type": "function"
    },
    {
      "inputs": [
        {
          "internalType": "uint256",
          "name": "_membershipId",
          "type": "uint256"
        }
      ],
      "name": "getMembershipsTaken",
      "outputs": [
        {
          "internalType": "uint256[]",
          "name": "",
          "type": "uint256[]"
        }
      ],
      "stateMutability": "view",
      "type": "function"
    },
    {
      "inputs": [
        {
          "internalType": "address",
          "name": "_address",
          "type": "address"
        }
      ],
      "name": "getUserMembership",
      "outputs": [
        {
          "components": [
            {
              "internalType": "uint256",
              "name": "id",
              "type": "uint256"
            },
            {
              "internalType": "uint256",
              "name": "membershipId",
              "type": "uint256"
            },
            {
              "internalType": "address",
              "name": "addressUser",
              "type": "address"
            },
            {
              "internalType": "uint256",
              "name": "cost",
              "type": "uint256"
            },
            {
              "internalType": "string",
              "name": "expireDate",
              "type": "string"
            }
          ],
          "internalType": "struct GPTMembership.UserMembership",
          "name": "",
          "type": "tuple"
        }
      ],
      "stateMutability": "view",
      "type": "function"
    },
    {
      "inputs": [
        {
          "internalType": "uint256",
          "name": "",
          "type": "uint256"
        },
        {
          "internalType": "address",
          "name": "",
          "type": "address"
        }
      ],
      "name": "hasBought",
      "outputs": [
        {
          "internalType": "bool",
          "name": "",
          "type": "bool"
        }
      ],
      "stateMutability": "view",
      "type": "function"
    },
    {
      "inputs": [
        {
          "internalType": "address",
          "name": "owner",
          "type": "address"
        },
        {
          "internalType": "address",
          "name": "operator",
          "type": "address"
        }
      ],
      "name": "isApprovedForAll",
      "outputs": [
        {
          "internalType": "bool",
          "name": "",
          "type": "bool"
        }
      ],
      "stateMutability": "view",
      "type": "function"
    },
    {
      "inputs": [
        {
          "internalType": "string",
          "name": "_name",
          "type": "string"
        },
        {
          "internalType": "uint256",
          "name": "_cost",
          "type": "uint256"
        },
        {
          "internalType": "string",
          "name": "_date",
          "type": "string"
        }
      ],
      "name": "list",
      "outputs": [],
      "stateMutability": "nonpayable",
      "type": "function"
    },
    {
      "inputs": [
        {
          "internalType": "uint256",
          "name": "",
          "type": "uint256"
        },
        {
          "internalType": "uint256",
          "name": "",
          "type": "uint256"
        }
      ],
      "name": "membershipTaken",
      "outputs": [
        {
          "internalType": "address",
          "name": "",
          "type": "address"
        }
      ],
      "stateMutability": "view",
      "type": "function"
    },
    {
      "inputs": [],
      "name": "membershipTypes",
      "outputs": [
        {
          "internalType": "uint256",
          "name": "",
          "type": "uint256"
        }
      ],
      "stateMutability": "view",
      "type": "function"
    },
    {
      "inputs": [
        {
          "internalType": "uint256",
          "name": "_membershipId",
          "type": "uint256"
        },
        {
          "internalType": "address",
          "name": "_user",
          "type": "address"
        },
        {
          "internalType": "string",
          "name": "_expireDate",
          "type": "string"
        }
      ],
      "name": "mint",
      "outputs": [],
      "stateMutability": "payable",
      "type": "function"
    },
    {
      "inputs": [],
      "name": "name",
      "outputs": [
        {
          "internalType": "string",
          "name": "",
          "type": "string"
        }
      ],
      "stateMutability": "view",
      "type": "function"
    },
    {
      "inputs": [],
      "name": "owner",
      "outputs": [
        {
          "internalType": "address",
          "name": "",
          "type": "address"
        }
      ],
      "stateMutability": "view",
      "type": "function"
    },
    {
      "inputs": [
        {
          "internalType": "uint256",
          "name": "tokenId",
          "type": "uint256"
        }
      ],
      "name": "ownerOf",
      "outputs": [
        {
          "internalType": "address",
          "name": "",
          "type": "address"
        }
      ],
      "stateMutability": "view",
      "type": "function"
    },
    {
      "inputs": [
        {
          "internalType": "address",
          "name": "from",
          "type": "address"
        },
        {
          "internalType": "address",
          "name": "to",
          "type": "address"
        },
        {
          "internalType": "uint256",
          "name": "tokenId",
          "type": "uint256"
        }
      ],
      "name": "safeTransferFrom",
      "outputs": [],
      "stateMutability": "nonpayable",
      "type": "function"
    },
    {
      "inputs": [
        {
          "internalType": "address",
          "name": "from",
          "type": "address"
        },
        {
          "internalType": "address",
          "name": "to",
          "type": "address"
        },
        {
          "internalType": "uint256",
          "name": "tokenId",
          "type": "uint256"
        },
        {
          "internalType": "bytes",
          "name": "data",
          "type": "bytes"
        }
      ],
      "name": "safeTransferFrom",
      "outputs": [],
      "stateMutability": "nonpayable",
      "type": "function"
    },
    {
      "inputs": [
        {
          "internalType": "address",
          "name": "operator",
          "type": "address"
        },
        {
          "internalType": "bool",
          "name": "approved",
          "type": "bool"
        }
      ],
      "name": "setApprovalForAll",
      "outputs": [],
      "stateMutability": "nonpayable",
      "type": "function"
    },
    {
      "inputs": [
        {
          "internalType": "bytes4",
          "name": "interfaceId",
          "type": "bytes4"
        }
      ],
      "name": "supportsInterface",
      "outputs": [
        {
          "internalType": "bool",
          "name": "",
          "type": "bool"
        }
      ],
      "stateMutability": "view",
      "type": "function"
    },
    {
      "inputs": [],
      "name": "symbol",
      "outputs": [
        {
          "internalType": "string",
          "name": "",
          "type": "string"
        }
      ],
      "stateMutability": "view",
      "type": "function"
    },
    {
      "inputs": [
        {
          "internalType": "uint256",
          "name": "tokenId",
          "type": "uint256"
        }
      ],
      "name": "tokenURI",
      "outputs": [
        {
          "internalType": "string",
          "name": "",
          "type": "string"
        }
      ],
      "stateMutability": "view",
      "type": "function"
    },
    {
      "inputs": [],
      "name": "totalMemberships",
      "outputs": [
        {
          "internalType": "uint256",
          "name": "",
          "type": "uint256"
        }
      ],
      "stateMutability": "view",
      "type": "function"
    },
    {
      "inputs": [
        {
          "internalType": "address",
          "name": "from",
          "type": "address"
        },
        {
          "internalType": "address",
          "name": "to",
          "type": "address"
        },
        {
          "internalType": "uint256",
          "name": "tokenId",
          "type": "uint256"
        }
      ],
      "name": "transferFrom",
      "outputs": [],
      "stateMutability": "nonpayable",
      "type": "function"
    },
    {
      "inputs": [],
      "name": "withdraw",
      "outputs": [],
      "stateMutability": "nonpayable",
      "type": "function"
    }
  ],
  "bytecode": "0x60806040526040518060400160405280600e81526020017f4441554c4154204855535341494e000000000000000000000000000000000000815250600990816200004a919062000369565b503480156200005857600080fd5b5060405162003fdd38038062003fdd83398181016040528101906200007e9190620005b4565b8181816000908162000091919062000369565b508060019081620000a3919062000369565b50505033600660006101000a81548173ffffffffffffffffffffffffffffffffffffffff021916908373ffffffffffffffffffffffffffffffffffffffff160217905550505062000639565b600081519050919050565b7f4e487b7100000000000000000000000000000000000000000000000000000000600052604160045260246000fd5b7f4e487b7100000000000000000000000000000000000000000000000000000000600052602260045260246000fd5b600060028204905060018216806200017157607f821691505b60208210810362000187576200018662000129565b5b50919050565b60008190508160005260206000209050919050565b60006020601f8301049050919050565b600082821b905092915050565b600060088302620001f17fffffffffffffffffffffffffffffffffffffffffffffffffffffffffffffffff82620001b2565b620001fd8683620001b2565b95508019841693508086168417925050509392505050565b6000819050919050565b6000819050919050565b60006200024a620002446200023e8462000215565b6200021f565b62000215565b9050919050565b6000819050919050565b620002668362000229565b6200027e620002758262000251565b848454620001bf565b825550505050565b600090565b6200029562000286565b620002a28184846200025b565b505050565b5b81811015620002ca57620002be6000826200028b565b600181019050620002a8565b5050565b601f8211156200031957620002e3816200018d565b620002ee84620001a2565b81016020851015620002fe578190505b620003166200030d85620001a2565b830182620002a7565b50505b505050565b600082821c905092915050565b60006200033e600019846008026200031e565b1980831691505092915050565b60006200035983836200032b565b9150826002028217905092915050565b6200037482620000ef565b67ffffffffffffffff81111562000390576200038f620000fa565b5b6200039c825462000158565b620003a9828285620002ce565b600060209050601f831160018114620003e15760008415620003cc578287015190505b620003d885826200034b565b86555062000448565b601f198416620003f1866200018d565b60005b828110156200041b57848901518255600182019150602085019450602081019050620003f4565b868310156200043b578489015162000437601f8916826200032b565b8355505b6001600288020188555050505b505050505050565b6000604051905090565b600080fd5b600080fd5b600080fd5b600080fd5b6000601f19601f8301169050919050565b6200048a826200046e565b810181811067ffffffffffffffff82111715620004ac57620004ab620000fa565b5b80604052505050565b6000620004c162000450565b9050620004cf82826200047f565b919050565b600067ffffffffffffffff821115620004f257620004f1620000fa565b5b620004fd826200046e565b9050602081019050919050565b60005b838110156200052a5780820151818401526020810190506200050d565b60008484015250505050565b60006200054d6200054784620004d4565b620004b5565b9050828152602081018484840111156200056c576200056b62000469565b5b620005798482856200050a565b509392505050565b600082601f83011262000599576200059862000464565b5b8151620005ab84826020860162000536565b91505092915050565b60008060408385031215620005ce57620005cd6200045a565b5b600083015167ffffffffffffffff811115620005ef57620005ee6200045f565b5b620005fd8582860162000581565b925050602083015167ffffffffffffffff8111156200062157620006206200045f565b5b6200062f8582860162000581565b9150509250929050565b61399480620006496000396000f3fe6080604052600436106101665760003560e01c80639485cfed116100d1578063bcd57d041161008a578063d121968411610064578063d121968414610574578063e67e402c146105b1578063e985e9c5146105cd578063f9efde301461060a57610166565b8063bcd57d04146104d1578063c87b56dd146104fa578063cdc461ad1461053757610166565b80639485cfed146103c157806395d89b41146103ec5780639bb11c42146104175780639cb04aef14610442578063a22cb4651461047f578063b88d4fde146104a857610166565b80633ccfd60b116101235780633ccfd60b1461029f5780633d07be7b146102b657806342842e0e146102f35780636352211e1461031c57806370a08231146103595780638da5cb5b1461039657610166565b806301ffc9a71461016b57806306fdde03146101a8578063081812fc146101d3578063095ea7b31461021057806323b872dd1461023957806338fbf2c614610262575b600080fd5b34801561017757600080fd5b50610192600480360381019061018d9190612471565b610635565b60405161019f91906124b9565b60405180910390f35b3480156101b457600080fd5b506101bd610717565b6040516101ca9190612564565b60405180910390f35b3480156101df57600080fd5b506101fa60048036038101906101f591906125bc565b6107a9565b604051610207919061262a565b60405180910390f35b34801561021c57600080fd5b5061023760048036038101906102329190612671565b6107ef565b005b34801561024557600080fd5b50610260600480360381019061025b91906126b1565b610906565b005b34801561026e57600080fd5b50610289600480360381019061028491906125bc565b610966565b60405161029691906127c7565b60405180910390f35b3480156102ab57600080fd5b506102b4610acb565b005b3480156102c257600080fd5b506102dd60048036038101906102d891906127e9565b610bc0565b6040516102ea919061289b565b60405180910390f35b3480156102ff57600080fd5b5061031a600480360381019061031591906126b1565b610d1f565b005b34801561032857600080fd5b50610343600480360381019061033e91906125bc565b610d3f565b604051610350919061262a565b60405180910390f35b34801561036557600080fd5b50610380600480360381019061037b91906127e9565b610dc5565b60405161038d91906128cc565b60405180910390f35b3480156103a257600080fd5b506103ab610e7c565b6040516103b8919061262a565b60405180910390f35b3480156103cd57600080fd5b506103d6610ea2565b6040516103e391906128cc565b60405180910390f35b3480156103f857600080fd5b50610401610ea8565b60405161040e9190612564565b60405180910390f35b34801561042357600080fd5b5061042c610f3a565b60405161043991906128cc565b60405180910390f35b34801561044e57600080fd5b50610469600480360381019061046491906128e7565b610f40565b60405161047691906124b9565b60405180910390f35b34801561048b57600080fd5b506104a660048036038101906104a19190612953565b610f6f565b005b3480156104b457600080fd5b506104cf60048036038101906104ca9190612ac8565b610f85565b005b3480156104dd57600080fd5b506104f860048036038101906104f39190612bec565b610fe7565b005b34801561050657600080fd5b50610521600480360381019061051c91906125bc565b6110d9565b60405161052e9190612564565b60405180910390f35b34801561054357600080fd5b5061055e600480360381019061055991906125bc565b611141565b60405161056b9190612d26565b60405180910390f35b34801561058057600080fd5b5061059b60048036038101906105969190612d48565b6111ac565b6040516105a8919061262a565b60405180910390f35b6105cb60048036038101906105c69190612d88565b6111ee565b005b3480156105d957600080fd5b506105f460048036038101906105ef9190612df7565b6114a8565b60405161060191906124b9565b60405180910390f35b34801561061657600080fd5b5061061f61153c565b60405161062c9190612564565b60405180910390f35b60007f80ac58cd000000000000000000000000000000000000000000000000000000007bffffffffffffffffffffffffffffffffffffffffffffffffffffffff1916827bffffffffffffffffffffffffffffffffffffffffffffffffffffffff1916148061070057507f5b5e139f000000000000000000000000000000000000000000000000000000007bffffffffffffffffffffffffffffffffffffffffffffffffffffffff1916827bffffffffffffffffffffffffffffffffffffffffffffffffffffffff1916145b80610710575061070f826115ca565b5b9050919050565b60606000805461072690612e66565b80601f016020809104026020016040519081016040528092919081815260200182805461075290612e66565b801561079f5780601f106107745761010080835404028352916020019161079f565b820191906000526020600020905b81548152906001019060200180831161078257829003601f168201915b5050505050905090565b60006107b482611634565b6004600083815260200190815260200160002060009054906101000a900473ffffffffffffffffffffffffffffffffffffffff169050919050565b60006107fa82610d3f565b90508073ffffffffffffffffffffffffffffffffffffffff168373ffffffffffffffffffffffffffffffffffffffff160361086a576040517f08c379a000000000000000000000000000000000000000000000000000000000815260040161086190612f09565b60405180910390fd5b8073ffffffffffffffffffffffffffffffffffffffff1661088961167f565b73ffffffffffffffffffffffffffffffffffffffff1614806108b857506108b7816108b261167f565b6114a8565b5b6108f7576040517f08c379a00000000000000000000000000000000000000000000000000000000081526004016108ee90612f9b565b60405180910390fd5b6109018383611687565b505050565b61091761091161167f565b82611740565b610956576040517f08c379a000000000000000000000000000000000000000000000000000000000815260040161094d9061302d565b60405180910390fd5b6109618383836117d5565b505050565b61096e612398565b600b6000838152602001908152602001600020604051806080016040529081600082015481526020016001820180546109a690612e66565b80601f01602080910402602001604051908101604052809291908181526020018280546109d290612e66565b8015610a1f5780601f106109f457610100808354040283529160200191610a1f565b820191906000526020600020905b815481529060010190602001808311610a0257829003601f168201915b5050505050815260200160028201548152602001600382018054610a4290612e66565b80601f0160208091040260200160405190810160405280929190818152602001828054610a6e90612e66565b8015610abb5780601f10610a9057610100808354040283529160200191610abb565b820191906000526020600020905b815481529060010190602001808311610a9e57829003601f168201915b5050505050815250509050919050565b600660009054906101000a900473ffffffffffffffffffffffffffffffffffffffff1673ffffffffffffffffffffffffffffffffffffffff163373ffffffffffffffffffffffffffffffffffffffff1614610b2557600080fd5b6000600660009054906101000a900473ffffffffffffffffffffffffffffffffffffffff1673ffffffffffffffffffffffffffffffffffffffff1647604051610b6d9061307e565b60006040518083038185875af1925050503d8060008114610baa576040519150601f19603f3d011682016040523d82523d6000602084013e610baf565b606091505b5050905080610bbd57600080fd5b50565b610bc86123c0565b600a60008373ffffffffffffffffffffffffffffffffffffffff1673ffffffffffffffffffffffffffffffffffffffff1681526020019081526020016000206040518060a001604052908160008201548152602001600182015481526020016002820160009054906101000a900473ffffffffffffffffffffffffffffffffffffffff1673ffffffffffffffffffffffffffffffffffffffff1673ffffffffffffffffffffffffffffffffffffffff16815260200160038201548152602001600482018054610c9690612e66565b80601f0160208091040260200160405190810160405280929190818152602001828054610cc290612e66565b8015610d0f5780601f10610ce457610100808354040283529160200191610d0f565b820191906000526020600020905b815481529060010190602001808311610cf257829003601f168201915b5050505050815250509050919050565b610d3a83838360405180602001604052806000815250610f85565b505050565b600080610d4b83611ace565b9050600073ffffffffffffffffffffffffffffffffffffffff168173ffffffffffffffffffffffffffffffffffffffff1603610dbc576040517f08c379a0000000000000000000000000000000000000000000000000000000008152600401610db3906130df565b60405180910390fd5b80915050919050565b60008073ffffffffffffffffffffffffffffffffffffffff168273ffffffffffffffffffffffffffffffffffffffff1603610e35576040517f08c379a0000000000000000000000000000000000000000000000000000000008152600401610e2c90613171565b60405180910390fd5b600360008373ffffffffffffffffffffffffffffffffffffffff1673ffffffffffffffffffffffffffffffffffffffff168152602001908152602001600020549050919050565b600660009054906101000a900473ffffffffffffffffffffffffffffffffffffffff1681565b60075481565b606060018054610eb790612e66565b80601f0160208091040260200160405190810160405280929190818152602001828054610ee390612e66565b8015610f305780601f10610f0557610100808354040283529160200191610f30565b820191906000526020600020905b815481529060010190602001808311610f1357829003601f168201915b5050505050905090565b60085481565b600c6020528160005260406000206020528060005260406000206000915091509054906101000a900460ff1681565b610f81610f7a61167f565b8383611b0b565b5050565b610f96610f9061167f565b83611740565b610fd5576040517f08c379a0000000000000000000000000000000000000000000000000000000008152600401610fcc9061302d565b60405180910390fd5b610fe184848484611c77565b50505050565b600660009054906101000a900473ffffffffffffffffffffffffffffffffffffffff1673ffffffffffffffffffffffffffffffffffffffff163373ffffffffffffffffffffffffffffffffffffffff161461104157600080fd5b60076000815480929190611054906131c0565b91905055506040518060800160405280600754815260200184815260200183815260200182815250600b600060075481526020019081526020016000206000820151816000015560208201518160010190816110b091906133b4565b506040820151816002015560608201518160030190816110d091906133b4565b50905050505050565b60606110e482611634565b60006110ee611cd3565b9050600081511161110e5760405180602001604052806000815250611139565b8061111884611cea565b6040516020016111299291906134c2565b6040516020818303038152906040525b915050919050565b6060600e60008381526020019081526020016000208054806020026020016040519081016040528092919081815260200182805480156111a057602002820191906000526020600020905b81548152602001906001019080831161118c575b50505050509050919050565b600d6020528160005260406000206020528060005260406000206000915091509054906101000a900473ffffffffffffffffffffffffffffffffffffffff1681565b600083036111fb57600080fd5b60075483111561120a57600080fd5b600b600084815260200190815260200160002060020154341015611263576040517f08c379a000000000000000000000000000000000000000000000000000000000815260040161125a90613532565b60405180910390fd5b60086000815480929190611276906131c0565b91905055506040518060a0016040528060085481526020018481526020018373ffffffffffffffffffffffffffffffffffffffff168152602001600b600086815260200190815260200160002060020154815260200182815250600a60008473ffffffffffffffffffffffffffffffffffffffff1673ffffffffffffffffffffffffffffffffffffffff168152602001908152602001600020600082015181600001556020820151816001015560408201518160020160006101000a81548173ffffffffffffffffffffffffffffffffffffffff021916908373ffffffffffffffffffffffffffffffffffffffff16021790555060608201518160030155608082015181600401908161138991906133b4565b509050506001600c600085815260200190815260200160002060003373ffffffffffffffffffffffffffffffffffffffff1673ffffffffffffffffffffffffffffffffffffffff16815260200190815260200160002060006101000a81548160ff02191690831515021790555033600d60008581526020019081526020016000206000600854815260200190815260200160002060006101000a81548173ffffffffffffffffffffffffffffffffffffffff021916908373ffffffffffffffffffffffffffffffffffffffff160217905550600e600084815260200190815260200160002060085490806001815401808255809150506001900390600052602060002001600090919091909150556114a333600854611db8565b505050565b6000600560008473ffffffffffffffffffffffffffffffffffffffff1673ffffffffffffffffffffffffffffffffffffffff16815260200190815260200160002060008373ffffffffffffffffffffffffffffffffffffffff1673ffffffffffffffffffffffffffffffffffffffff16815260200190815260200160002060009054906101000a900460ff16905092915050565b6009805461154990612e66565b80601f016020809104026020016040519081016040528092919081815260200182805461157590612e66565b80156115c25780601f10611597576101008083540402835291602001916115c2565b820191906000526020600020905b8154815290600101906020018083116115a557829003601f168201915b505050505081565b60007f01ffc9a7000000000000000000000000000000000000000000000000000000007bffffffffffffffffffffffffffffffffffffffffffffffffffffffff1916827bffffffffffffffffffffffffffffffffffffffffffffffffffffffff1916149050919050565b61163d81611dd6565b61167c576040517f08c379a0000000000000000000000000000000000000000000000000000000008152600401611673906130df565b60405180910390fd5b50565b600033905090565b816004600083815260200190815260200160002060006101000a81548173ffffffffffffffffffffffffffffffffffffffff021916908373ffffffffffffffffffffffffffffffffffffffff160217905550808273ffffffffffffffffffffffffffffffffffffffff166116fa83610d3f565b73ffffffffffffffffffffffffffffffffffffffff167f8c5be1e5ebec7d5bd14f71427d1e84f3dd0314c0f7b2291e5b200ac8c7c3b92560405160405180910390a45050565b60008061174c83610d3f565b90508073ffffffffffffffffffffffffffffffffffffffff168473ffffffffffffffffffffffffffffffffffffffff16148061178e575061178d81856114a8565b5b806117cc57508373ffffffffffffffffffffffffffffffffffffffff166117b4846107a9565b73ffffffffffffffffffffffffffffffffffffffff16145b91505092915050565b8273ffffffffffffffffffffffffffffffffffffffff166117f582610d3f565b73ffffffffffffffffffffffffffffffffffffffff161461184b576040517f08c379a0000000000000000000000000000000000000000000000000000000008152600401611842906135c4565b60405180910390fd5b600073ffffffffffffffffffffffffffffffffffffffff168273ffffffffffffffffffffffffffffffffffffffff16036118ba576040517f08c379a00000000000000000000000000000000000000000000000000000000081526004016118b190613656565b60405180910390fd5b6118c78383836001611e17565b8273ffffffffffffffffffffffffffffffffffffffff166118e782610d3f565b73ffffffffffffffffffffffffffffffffffffffff161461193d576040517f08c379a0000000000000000000000000000000000000000000000000000000008152600401611934906135c4565b60405180910390fd5b6004600082815260200190815260200160002060006101000a81549073ffffffffffffffffffffffffffffffffffffffff02191690556001600360008573ffffffffffffffffffffffffffffffffffffffff1673ffffffffffffffffffffffffffffffffffffffff168152602001908152602001600020600082825403925050819055506001600360008473ffffffffffffffffffffffffffffffffffffffff1673ffffffffffffffffffffffffffffffffffffffff16815260200190815260200160002060008282540192505081905550816002600083815260200190815260200160002060006101000a81548173ffffffffffffffffffffffffffffffffffffffff021916908373ffffffffffffffffffffffffffffffffffffffff160217905550808273ffffffffffffffffffffffffffffffffffffffff168473ffffffffffffffffffffffffffffffffffffffff167fddf252ad1be2c89b69c2b068fc378daa952ba7f163c4a11628f55a4df523b3ef60405160405180910390a4611ac98383836001611e1d565b505050565b60006002600083815260200190815260200160002060009054906101000a900473ffffffffffffffffffffffffffffffffffffffff169050919050565b8173ffffffffffffffffffffffffffffffffffffffff168373ffffffffffffffffffffffffffffffffffffffff1603611b79576040517f08c379a0000000000000000000000000000000000000000000000000000000008152600401611b70906136c2565b60405180910390fd5b80600560008573ffffffffffffffffffffffffffffffffffffffff1673ffffffffffffffffffffffffffffffffffffffff16815260200190815260200160002060008473ffffffffffffffffffffffffffffffffffffffff1673ffffffffffffffffffffffffffffffffffffffff16815260200190815260200160002060006101000a81548160ff0219169083151502179055508173ffffffffffffffffffffffffffffffffffffffff168373ffffffffffffffffffffffffffffffffffffffff167f17307eab39ab6107e8899845ad3d59bd9653f200f220920489ca2b5937696c3183604051611c6a91906124b9565b60405180910390a3505050565b611c828484846117d5565b611c8e84848484611e23565b611ccd576040517f08c379a0000000000000000000000000000000000000000000000000000000008152600401611cc490613754565b60405180910390fd5b50505050565b606060405180602001604052806000815250905090565b606060006001611cf984611faa565b01905060008167ffffffffffffffff811115611d1857611d1761299d565b5b6040519080825280601f01601f191660200182016040528015611d4a5781602001600182028036833780820191505090505b509050600082602001820190505b600115611dad578080600190039150507f3031323334353637383961626364656600000000000000000000000000000000600a86061a8153600a8581611da157611da0613774565b5b04945060008503611d58575b819350505050919050565b611dd28282604051806020016040528060008152506120fd565b5050565b60008073ffffffffffffffffffffffffffffffffffffffff16611df883611ace565b73ffffffffffffffffffffffffffffffffffffffff1614159050919050565b50505050565b50505050565b6000611e448473ffffffffffffffffffffffffffffffffffffffff16612158565b15611f9d578373ffffffffffffffffffffffffffffffffffffffff1663150b7a02611e6d61167f565b8786866040518563ffffffff1660e01b8152600401611e8f94939291906137f8565b6020604051808303816000875af1925050508015611ecb57506040513d601f19601f82011682018060405250810190611ec89190613859565b60015b611f4d573d8060008114611efb576040519150601f19603f3d011682016040523d82523d6000602084013e611f00565b606091505b506000815103611f45576040517f08c379a0000000000000000000000000000000000000000000000000000000008152600401611f3c90613754565b60405180910390fd5b805181602001fd5b63150b7a0260e01b7bffffffffffffffffffffffffffffffffffffffffffffffffffffffff1916817bffffffffffffffffffffffffffffffffffffffffffffffffffffffff191614915050611fa2565b600190505b949350505050565b600080600090507a184f03e93ff9f4daa797ed6e38ed64bf6a1f0100000000000000008310612008577a184f03e93ff9f4daa797ed6e38ed64bf6a1f0100000000000000008381611ffe57611ffd613774565b5b0492506040810190505b6d04ee2d6d415b85acef81000000008310612045576d04ee2d6d415b85acef8100000000838161203b5761203a613774565b5b0492506020810190505b662386f26fc10000831061207457662386f26fc10000838161206a57612069613774565b5b0492506010810190505b6305f5e100831061209d576305f5e100838161209357612092613774565b5b0492506008810190505b61271083106120c25761271083816120b8576120b7613774565b5b0492506004810190505b606483106120e557606483816120db576120da613774565b5b0492506002810190505b600a83106120f4576001810190505b80915050919050565b612107838361217b565b6121146000848484611e23565b612153576040517f08c379a000000000000000000000000000000000000000000000000000000000815260040161214a90613754565b60405180910390fd5b505050565b6000808273ffffffffffffffffffffffffffffffffffffffff163b119050919050565b600073ffffffffffffffffffffffffffffffffffffffff168273ffffffffffffffffffffffffffffffffffffffff16036121ea576040517f08c379a00000000000000000000000000000000000000000000000000000000081526004016121e1906138d2565b60405180910390fd5b6121f381611dd6565b15612233576040517f08c379a000000000000000000000000000000000000000000000000000000000815260040161222a9061393e565b60405180910390fd5b612241600083836001611e17565b61224a81611dd6565b1561228a576040517f08c379a00000000000000000000000000000000000000000000000000000000081526004016122819061393e565b60405180910390fd5b6001600360008473ffffffffffffffffffffffffffffffffffffffff1673ffffffffffffffffffffffffffffffffffffffff16815260200190815260200160002060008282540192505081905550816002600083815260200190815260200160002060006101000a81548173ffffffffffffffffffffffffffffffffffffffff021916908373ffffffffffffffffffffffffffffffffffffffff160217905550808273ffffffffffffffffffffffffffffffffffffffff16600073ffffffffffffffffffffffffffffffffffffffff167fddf252ad1be2c89b69c2b068fc378daa952ba7f163c4a11628f55a4df523b3ef60405160405180910390a4612394600083836001611e1d565b5050565b6040518060800160405280600081526020016060815260200160008152602001606081525090565b6040518060a001604052806000815260200160008152602001600073ffffffffffffffffffffffffffffffffffffffff16815260200160008152602001606081525090565b6000604051905090565b600080fd5b600080fd5b60007fffffffff0000000000000000000000000000000000000000000000000000000082169050919050565b61244e81612419565b811461245957600080fd5b50565b60008135905061246b81612445565b92915050565b6000602082840312156124875761248661240f565b5b60006124958482850161245c565b91505092915050565b60008115159050919050565b6124b38161249e565b82525050565b60006020820190506124ce60008301846124aa565b92915050565b600081519050919050565b600082825260208201905092915050565b60005b8381101561250e5780820151818401526020810190506124f3565b60008484015250505050565b6000601f19601f8301169050919050565b6000612536826124d4565b61254081856124df565b93506125508185602086016124f0565b6125598161251a565b840191505092915050565b6000602082019050818103600083015261257e818461252b565b905092915050565b6000819050919050565b61259981612586565b81146125a457600080fd5b50565b6000813590506125b681612590565b92915050565b6000602082840312156125d2576125d161240f565b5b60006125e0848285016125a7565b91505092915050565b600073ffffffffffffffffffffffffffffffffffffffff82169050919050565b6000612614826125e9565b9050919050565b61262481612609565b82525050565b600060208201905061263f600083018461261b565b92915050565b61264e81612609565b811461265957600080fd5b50565b60008135905061266b81612645565b92915050565b600080604083850312156126885761268761240f565b5b60006126968582860161265c565b92505060206126a7858286016125a7565b9150509250929050565b6000806000606084860312156126ca576126c961240f565b5b60006126d88682870161265c565b93505060206126e98682870161265c565b92505060406126fa868287016125a7565b9150509250925092565b61270d81612586565b82525050565b600082825260208201905092915050565b600061272f826124d4565b6127398185612713565b93506127498185602086016124f0565b6127528161251a565b840191505092915050565b60006080830160008301516127756000860182612704565b506020830151848203602086015261278d8282612724565b91505060408301516127a26040860182612704565b50606083015184820360608601526127ba8282612724565b9150508091505092915050565b600060208201905081810360008301526127e1818461275d565b905092915050565b6000602082840312156127ff576127fe61240f565b5b600061280d8482850161265c565b91505092915050565b61281f81612609565b82525050565b600060a08301600083015161283d6000860182612704565b5060208301516128506020860182612704565b5060408301516128636040860182612816565b5060608301516128766060860182612704565b506080830151848203608086015261288e8282612724565b9150508091505092915050565b600060208201905081810360008301526128b58184612825565b905092915050565b6128c681612586565b82525050565b60006020820190506128e160008301846128bd565b92915050565b600080604083850312156128fe576128fd61240f565b5b600061290c858286016125a7565b925050602061291d8582860161265c565b9150509250929050565b6129308161249e565b811461293b57600080fd5b50565b60008135905061294d81612927565b92915050565b6000806040838503121561296a5761296961240f565b5b60006129788582860161265c565b92505060206129898582860161293e565b9150509250929050565b600080fd5b600080fd5b7f4e487b7100000000000000000000000000000000000000000000000000000000600052604160045260246000fd5b6129d58261251a565b810181811067ffffffffffffffff821117156129f4576129f361299d565b5b80604052505050565b6000612a07612405565b9050612a1382826129cc565b919050565b600067ffffffffffffffff821115612a3357612a3261299d565b5b612a3c8261251a565b9050602081019050919050565b82818337600083830152505050565b6000612a6b612a6684612a18565b6129fd565b905082815260208101848484011115612a8757612a86612998565b5b612a92848285612a49565b509392505050565b600082601f830112612aaf57612aae612993565b5b8135612abf848260208601612a58565b91505092915050565b60008060008060808587031215612ae257612ae161240f565b5b6000612af08782880161265c565b9450506020612b018782880161265c565b9350506040612b12878288016125a7565b925050606085013567ffffffffffffffff811115612b3357612b32612414565b5b612b3f87828801612a9a565b91505092959194509250565b600067ffffffffffffffff821115612b6657612b6561299d565b5b612b6f8261251a565b9050602081019050919050565b6000612b8f612b8a84612b4b565b6129fd565b905082815260208101848484011115612bab57612baa612998565b5b612bb6848285612a49565b509392505050565b600082601f830112612bd357612bd2612993565b5b8135612be3848260208601612b7c565b91505092915050565b600080600060608486031215612c0557612c0461240f565b5b600084013567ffffffffffffffff811115612c2357612c22612414565b5b612c2f86828701612bbe565b9350506020612c40868287016125a7565b925050604084013567ffffffffffffffff811115612c6157612c60612414565b5b612c6d86828701612bbe565b9150509250925092565b600081519050919050565b600082825260208201905092915050565b6000819050602082019050919050565b6000612caf8383612704565b60208301905092915050565b6000602082019050919050565b6000612cd382612c77565b612cdd8185612c82565b9350612ce883612c93565b8060005b83811015612d19578151612d008882612ca3565b9750612d0b83612cbb565b925050600181019050612cec565b5085935050505092915050565b60006020820190508181036000830152612d408184612cc8565b905092915050565b60008060408385031215612d5f57612d5e61240f565b5b6000612d6d858286016125a7565b9250506020612d7e858286016125a7565b9150509250929050565b600080600060608486031215612da157612da061240f565b5b6000612daf868287016125a7565b9350506020612dc08682870161265c565b925050604084013567ffffffffffffffff811115612de157612de0612414565b5b612ded86828701612bbe565b9150509250925092565b60008060408385031215612e0e57612e0d61240f565b5b6000612e1c8582860161265c565b9250506020612e2d8582860161265c565b9150509250929050565b7f4e487b7100000000000000000000000000000000000000000000000000000000600052602260045260246000fd5b60006002820490506001821680612e7e57607f821691505b602082108103612e9157612e90612e37565b5b50919050565b7f4552433732313a20617070726f76616c20746f2063757272656e74206f776e6560008201527f7200000000000000000000000000000000000000000000000000000000000000602082015250565b6000612ef36021836124df565b9150612efe82612e97565b604082019050919050565b60006020820190508181036000830152612f2281612ee6565b9050919050565b7f4552433732313a20617070726f76652063616c6c6572206973206e6f7420746f60008201527f6b656e206f776e6572206f7220617070726f76656420666f7220616c6c000000602082015250565b6000612f85603d836124df565b9150612f9082612f29565b604082019050919050565b60006020820190508181036000830152612fb481612f78565b9050919050565b7f4552433732313a2063616c6c6572206973206e6f7420746f6b656e206f776e6560008201527f72206f7220617070726f76656400000000000000000000000000000000000000602082015250565b6000613017602d836124df565b915061302282612fbb565b604082019050919050565b600060208201905081810360008301526130468161300a565b9050919050565b600081905092915050565b50565b600061306860008361304d565b915061307382613058565b600082019050919050565b60006130898261305b565b9150819050919050565b7f4552433732313a20696e76616c696420746f6b656e2049440000000000000000600082015250565b60006130c96018836124df565b91506130d482613093565b602082019050919050565b600060208201905081810360008301526130f8816130bc565b9050919050565b7f4552433732313a2061646472657373207a65726f206973206e6f74206120766160008201527f6c6964206f776e65720000000000000000000000000000000000000000000000602082015250565b600061315b6029836124df565b9150613166826130ff565b604082019050919050565b6000602082019050818103600083015261318a8161314e565b9050919050565b7f4e487b7100000000000000000000000000000000000000000000000000000000600052601160045260246000fd5b60006131cb82612586565b91507fffffffffffffffffffffffffffffffffffffffffffffffffffffffffffffffff82036131fd576131fc613191565b5b600182019050919050565b60008190508160005260206000209050919050565b60006020601f8301049050919050565b600082821b905092915050565b60006008830261326a7fffffffffffffffffffffffffffffffffffffffffffffffffffffffffffffffff8261322d565b613274868361322d565b95508019841693508086168417925050509392505050565b6000819050919050565b60006132b16132ac6132a784612586565b61328c565b612586565b9050919050565b6000819050919050565b6132cb83613296565b6132df6132d7826132b8565b84845461323a565b825550505050565b600090565b6132f46132e7565b6132ff8184846132c2565b505050565b5b81811015613323576133186000826132ec565b600181019050613305565b5050565b601f8211156133685761333981613208565b6133428461321d565b81016020851015613351578190505b61336561335d8561321d565b830182613304565b50505b505050565b600082821c905092915050565b600061338b6000198460080261336d565b1980831691505092915050565b60006133a4838361337a565b9150826002028217905092915050565b6133bd826124d4565b67ffffffffffffffff8111156133d6576133d561299d565b5b6133e08254612e66565b6133eb828285613327565b600060209050601f83116001811461341e576000841561340c578287015190505b6134168582613398565b86555061347e565b601f19841661342c86613208565b60005b828110156134545784890151825560018201915060208501945060208101905061342f565b86831015613471578489015161346d601f89168261337a565b8355505b6001600288020188555050505b505050505050565b600081905092915050565b600061349c826124d4565b6134a68185613486565b93506134b68185602086016124f0565b80840191505092915050565b60006134ce8285613491565b91506134da8284613491565b91508190509392505050565b7f496e737566666963656e742062616c616e636500000000000000000000000000600082015250565b600061351c6013836124df565b9150613527826134e6565b602082019050919050565b6000602082019050818103600083015261354b8161350f565b9050919050565b7f4552433732313a207472616e736665722066726f6d20696e636f72726563742060008201527f6f776e6572000000000000000000000000000000000000000000000000000000602082015250565b60006135ae6025836124df565b91506135b982613552565b604082019050919050565b600060208201905081810360008301526135dd816135a1565b9050919050565b7f4552433732313a207472616e7366657220746f20746865207a65726f2061646460008201527f7265737300000000000000000000000000000000000000000000000000000000602082015250565b60006136406024836124df565b915061364b826135e4565b604082019050919050565b6000602082019050818103600083015261366f81613633565b9050919050565b7f4552433732313a20617070726f766520746f2063616c6c657200000000000000600082015250565b60006136ac6019836124df565b91506136b782613676565b602082019050919050565b600060208201905081810360008301526136db8161369f565b9050919050565b7f4552433732313a207472616e7366657220746f206e6f6e20455243373231526560008201527f63656976657220696d706c656d656e7465720000000000000000000000000000602082015250565b600061373e6032836124df565b9150613749826136e2565b604082019050919050565b6000602082019050818103600083015261376d81613731565b9050919050565b7f4e487b7100000000000000000000000000000000000000000000000000000000600052601260045260246000fd5b600081519050919050565b600082825260208201905092915050565b60006137ca826137a3565b6137d481856137ae565b93506137e48185602086016124f0565b6137ed8161251a565b840191505092915050565b600060808201905061380d600083018761261b565b61381a602083018661261b565b61382760408301856128bd565b818103606083015261383981846137bf565b905095945050505050565b60008151905061385381612445565b92915050565b60006020828403121561386f5761386e61240f565b5b600061387d84828501613844565b91505092915050565b7f4552433732313a206d696e7420746f20746865207a65726f2061646472657373600082015250565b60006138bc6020836124df565b91506138c782613886565b602082019050919050565b600060208201905081810360008301526138eb816138af565b9050919050565b7f4552433732313a20746f6b656e20616c7265616479206d696e74656400000000600082015250565b6000613928601c836124df565b9150613933826138f2565b602082019050919050565b600060208201905081810360008301526139578161391b565b905091905056fea26469706673582212202b3a0c08cfe47755fb0b41903eb38d305cbe911c398619b8dd1c9f188b65bbd564736f6c63430008110033",
  "linkReferences": {},
  "deployedLinkReferences": {}
}